:020000040800F2
:10000000E0050020490100086D1E0008411D0008A0
:10001000691E0008B50100089524000800000000D2
:100020000000000000000000000000009D1E00080D
:100030001502000800000000711E00089F1E000845
:100040006301000863010008630100086301000800
:1000500063010008630100086301000863010008F0
:1000600063010008630100086301000863010008E0
:10007000B9010008C901000863010008D90100089E
:1000800063010008630100086301000863010008C0
:1000900063010008630100086301000863010008B0
:1000A00063010008630100086301000863010008A0
:1000B0006301000863010008630100086301000890
:1000C0006301000863010008630100086301000880
:1000D000630100086301000863010008852400082B
:1000E0006301000863010008630100086301000860
:1000F0006301000863010008630100086301000850
:10010000630100086301000863010008630100083F
:10011000630100086301000863010008630100082F
:10012000630100086301000863010008630100081F
:10013000DFF810D000F02CF800480047F124000848
:10014000AFF30080E00500200648804706480047DE
:10015000FEE7FEE7FEE7FEE7FEE7FEE7FEE7FEE777
:10016000FEE7FEE70D1F000831010008D2B201E0F2
:1001700000F8012B491EFBD270470022F6E710B5AC
:1001800013460A4604461946FFF7F0FF204610BD05
:10019000064C074D06E0E06840F0010394E80700D4
:1001A00098471034AC42F6D3FFF7C6FF4C25000841
:1001B0006C25000800BFFEE710B5024800F02EF9DC
:1001C00010BD00009C01002010B5024800F026F987
:1001D00010BD00005801002010B5024800F01EF9C3
:1001E00010BD00001401002030B590F840500124EB
:1001F000AC40C56B6C60046863604468102C04D12B
:100200000468A2600468E16003E00468A160046817
:10021000E26030BD704772B600BFFEE701460022C3
:1002200091F82100022808D00420886300BF002034
:1002300081F8200000BF012070470868006820F0A6
:100240000E000B6818600868006820F001000B6859
:10025000186091F8403001209840CB6B5860012025
:1002600081F8210000BF002081F8200000BF104667
:10027000E2E7000070B50446002594F8210002284A
:1002800003D00420A0630125C1E02068006820F0AD
:100290000E00216808602068006820F001002168D5
:1002A00008605C492068884252D95A4978392068E8
:1002B000884201D1012047E05649643920688842CC
:1002C00001D1102040E0534950392068884201D1C3
:1002D000801539E04F493C392068884201D18014AB
:1002E00032E04C4928392068884202D14FF48030EE
:1002F0002AE0484914392068884202D14FF480101E
:1003000022E044492068884201D140041CE042496F
:100310002068884201D1012016E03F49143120684D
:10032000884201D110200FE03B49283120688842E3
:1003300001D1801508E038493C312068884201D15C
:10034000801401E04FF480303349091F086051E008
:10035000304978392068884201D1012047E02D4991
:1003600064392068884201D1102040E02949503981
:100370002068884201D1801539E026493C3920683F
:10038000884201D1801432E022492839206888420D
:1003900002D14FF480302AE01E4914392068884287
:1003A00002D14FF4801022E01A492068884201D11E
:1003B00040041CE018492068884201D1012016E061
:1003C000154914312068884201D110200FE01249EC
:1003D00028312068884201D1801508E00E493C315F
:1003E0002068884201D1801401E04FF4803009492F
:1003F00080394860012084F8210000BF002084F883
:10040000200000BF606B10B12046616B8847284612
:1004100070BD0000800002400804024070B5044630
:10042000E06B05682068066894F840100420884056
:100430002840002875D006F004000028FAD0206873
:10044000006800F0200028B92068006820F004004F
:1004500021680860D5492068884254D9D349783941
:100460002068884201D1042049E0D04964392068DD
:10047000884201D1402042E0CC495039206888426E
:1004800001D100153BE0C9493C392068884202D1BE
:100490004FF4804033E0C54928392068884202D1B2
:1004A0004FF480202BE0C14914392068884202D1E2
:1004B0004FF4800023E0BD492068884201D1C00488
:1004C0001DE0BB492068884201D1042017E0B849EB
:1004D00014312068884201D1402010E0B44928310D
:1004E0002068884201D1001509E0B1493C312068FB
:1004F000884202D14FF4804001E04FF48020AC49A3
:10050000091F086054E0A94978392068884201D160
:1005100004204AE0A54964392068884202D140207D
:1005200043E04CE0A14950392068884201D10015D0
:100530003BE09E493C392068884202D14FF480401C
:1005400033E09A4928392068884202D14FF480204C
:100550002BE0964914392068884202D14FF480007C
:1005600023E092492068884201D1C0041DE09049EF
:100570002068884201D1042017E08D491431206899
:10058000884201D1402010E0894928312068884202
:1005900001D1001509E086493C312068884202D12A
:1005A0004FF4804001E04FF480208049803948605A
:1005B000E06A002802D02046E16A8847F4E094F817
:1005C0004010022088402840002871D006F0020028
:1005D0000028FAD02068006800F0200040B92068A8
:1005E000006820F00A0021680860012084F82100DA
:1005F0006E492068884254D96C497839206888420D
:1006000001D1022049E0694964392068884201D15A
:10061000202042E0654950392068884201D14015C8
:100620003BE062493C392068884202D14FF40050D7
:1006300033E05E4928392068884202D14FF4003007
:100640002BE05A4914392068884202D14FF4001037
:1006500023E056492068884201D180041DE05449B6
:100660002068884201D1022017E0514914312068E6
:10067000884201D1202010E04D492831206888426D
:1006800001D1401509E04A493C312068884202D135
:100690004FF4005001E04FF400304549091F086055
:1006A00054E0424978392068884202D102204AE069
:1006B00057E03E4964392068884201D1202042E059
:1006C0003A4950392068884201D140153BE037490A
:1006D0003C392068884202D14FF4005033E033495E
:1006E00028392068884202D14FF400302BE02F498E
:1006F00014392068884202D14FF4001023E02B49BE
:100700002068884201D180041DE029492068884280
:1007100001D1022017E0264914312068884201D116
:10072000202010E0224928312068884201D140155C
:1007300009E01F493C312068884202D14FF4005043
:1007400001E04FF4003019498039486000BF0020B3
:1007500084F8200000BFA06A30B32046A16A884711
:1007600022E094F84010082088402840E0B106F0CC
:100770000800C8B12068006820F00E0021680860F9
:1007800094F8401001208840E16B48600120A0638C
:1007900084F8210000BF002084F8200000BF206BF7
:1007A00010B12046216B884770BD000080000240D8
:1007B000080402400146002209B9012070471E4B7F
:1007C000086898420BD21D4B0868C01A1423B0FB6E
:1007D000F3F08000086419480838C8630AE0164B33
:1007E0000868C01A1423B0FBF3F0800008641248B4
:1007F0000838C863022081F821000868026843F6BF
:10080000F0708243D1E901031843CB6818430B69A8
:1008100018434B6918438B691843CB69184302434B
:100820000868026000208863012081F82100002010
:1008300081F8200000BFC1E7080402400800024020
:100840002DE9F04104460D4616461F464FF00008BC
:1008500000BF94F82000012802D10220BDE8F081F9
:10086000012084F8200000BF94F8210001282CD139
:10087000022084F821000020A0632068006820F096
:100880000100216808603B46324629462046FFF7B2
:10089000ABFCE06A30B12068006840F00E002168CF
:1008A00008600BE02068006820F004002168086000
:1008B0002068006840F00A0021680860206800682D
:1008C00040F001002168086006E000BF002084F8C5
:1008D000200000BF4FF002084046BFE72DE9F8476F
:1008E000024600239C467BE14FF0010808FA03F41E
:1008F000D1F8008008EA0400A0427DD1DFF8F4A21C
:10090000D1F80480A8EB0A09D0453AD014DCB8F13C
:10091000030F50D009DCB8F1000F31D0B8F1010F4E
:100920001CD0B8F1020F49D120E0B8F1110F18D056
:10093000B8F1120F42D11EE0B9F5881F25D006DCB0
:10094000B9F5803F20D0B9F5801F37D11AE0B9F54D
:10095000001F18D0B9F5041F30D117E0D1F80CC032
:100960002DE0D1F80C8008F1040C28E0D1F80C80BF
:1009700008F1080C23E0D1F80C8008F10C0C1EE003
:1009800000BF00BF00BF00BF00BF00BFD1F808809C
:10099000B8F1000F02D14FF0040C0BE0D1F8088041
:1009A000B8F1010F03D14FF0080C146102E04FF0D1
:1009B000080C546103E04FF0000C00E000BF00BFE2
:1009C000FF2801D8904601E002F104084646FF28BE
:1009D00002D84FEA830803E0A3F108084FEA880829
:1009E0004746D6F800804FF00F0909FA07F928EAC0
:1009F00009080CFA07F900E07AE048EA0908C6F8A5
:100A00000080D1F8048008F08058B8F1805F6FD181
:100A100000BFDFF8E481D8F8188048F00108DFF85B
:100A2000D891C9F81880C846D8F8188008F001088D
:100A3000CDF8008000BF00BF4FEAB9384FEA9309F4
:100A400058F829504FEA83784FEA18794FF00F0889
:100A500008FA09F825EA0805DFF8A081424502D125
:100A60004FF0000824E0DFF89881424502D14FF0B2
:100A700001081DE0DFF88C81424502D14FF00208E9
:100A800016E0DFF88481424502D14FF003080FE001
:100A9000DFF87881424502D14FF0040808E0DFF822
:100AA0007081424502D14FF0050801E04FF0060881
:100AB0004FEA83794FEA197908FA09F848EA0505F7
:100AC000DFF850814FEA930948F82950D1F80480A3
:100AD00008F48018B8F5801F0BD1DFF83C81D8F8F6
:100AE000008048EA0008DFF83091C9F800800AE089
:100AF00075E0DFF82481D8F8008028EA0008DFF8E4
:100B00001891C9F80080D1F8048008F40018B8F5ED
:100B1000001F0ED1DFF8008108F10408D8F800802A
:100B200048EA0008DFF8F09009F10409C9F80080EC
:100B30000DE0DFF8E48008F10408D8F8008028EA26
:100B40000008DFF8D49009F10409C9F80080D1F851
:100B5000048008F40038B8F5003F0ED1DFF8B88003
:100B6000A8F10408D8F8008048EA0008DFF8A89047
:100B7000A9F10409C9F800800DE0DFF89C80A8F114
:100B80000408D8F8008028EA0008DFF88C90A9F162
:100B90000409C9F80080D1F8048008F48038B8F559
:100BA000803F0ED1DFF87080A8F10808D8F80080E7
:100BB00048EA0008DFF86090A9F10809C9F8008048
:100BC0000DE0DFF85480A8F10808D8F8008028EA82
:100BD0000008DFF84490A9F10809C9F800805B1CFF
:100BE000D1F8008028FA03F8B8F1000F7FF47CAE4A
:100BF000BDE8F88700001110001002400008014015
:100C0000000C014000100140001401400018014098
:100C1000001C014008000140080401400148006830
:100C20007047000008000020034800680349097865
:100C300008440149086070470800002010000020A7
:100C400010B50848006840F010000649086003200D
:100C500000F0A8F80F2000F007F800F02BF80020B3
:100C600010BD00000020024070B504460E48007818
:100C70004FF47A71B1FBF0F00C490968B1FBF0F563
:100C8000284600F0F9FB08B1012070BD102C07D2F6
:100C900000222146501E00F047F80548046001E09C
:100CA0000120F2E70020F0E71000002014000020EF
:100CB0000C00002008B500BF1148806940F0010019
:100CC0000F4988610846806900F00100009000BF6C
:100CD00000BF00BF0846C06940F08050C8610846A8
:100CE000C06900F08050009000BF00BF00BF054900
:100CF000486820F0E06040F00070486000BF08BD28
:100D0000001002400000014001460846002809DBAF
:100D100000F01F0301229A4043099B0003F1E023E6
:100D2000C3F8002100BF70472DE9F05F80460D46F3
:100D30001646002701F0B0FB074639462A463346DF
:100D400001F00700C0F1070ABAF1040F02D94FF011
:100D5000040A01E0C0F1070AD14600F1040ABAF121
:100D6000070F02D24FF0000A01E0A0F1030AD446B7
:100D70004FF0010A0AFA09FAAAF1010A0AEA020A7C
:100D80000AFA0CFA4FF0010B0BFA0CFBABF1010B5A
:100D90000BEA030B4AEA0B042146404601F084FBB0
:100DA000BDE8F09F00BF00F00702064B19684FF640
:100DB000FF031940044B0B4343EA0221014B196026
:100DC00000BF70470CED00E00000FA0570B5044666
:100DD0000D460CB9012070BD5A48006800F00700AC
:100DE000A8420ED25748006820F007002843554912
:100DF00008600846006800F00700A84201D0012002
:100E0000E9E7207800F0020002281DD1207800F0E8
:100E10000400042805D14C48406840F4E0604A4989
:100E20004860207800F00800082805D1464840684E
:100E300040F46050444948604348406820F0F00066
:100E4000A168084340494860207800F0010078B369
:100E50006068012806D13C48006800F4003090B971
:100E60000120B8E76068022806D13748006800F022
:100E7000007040B90120AEE73348006800F002007E
:100E800008B90120A7E73048406820F003006168F6
:100E900008432D494860FFF7C1FE064609E0FFF709
:100EA000BDFE801B41F28831884202D9032092E7BF
:100EB00007E02548406800F00C006168B0EB810F46
:100EC000EDD12048006800F00700A8420ED91D4867
:100ED000006820F0070028431A49086008460068A7
:100EE00000F00700A84201D0012074E7207800F04C
:100EF0000400042807D11448406820F4E060E16849
:100F0000084311494860207800F00800082808D1FB
:100F10000D48406820F46050216940EAC1000A4948
:100F2000486000F03FF808494968C1F30311074AD7
:100F3000515CC8400649086006480068FFF794FE07
:100F4000002048E70020024000100240322500083F
:100F5000140000200C0000200148006870470000C9
:100F60001400002000B5FFF7F7FF04494968C1F3FA
:100F70000221034A515CC84000BD0000001002403D
:100F80004225000800B5FFF7E7FF04494968C1F3AF
:100F9000C221034A515CC84000BD0000001002405D
:100FA0004225000870B50021002200240023002003
:100FB000134D696801F00C05F5B1042D02D0082D20
:100FC00019D101E00F4819E00F4DC1F38346AB5D25
:100FD00001F4803555B10A4D6D68C5F340450B4E9F
:100FE000725D084D5D43B5FBF2F402E0084D03FB72
:100FF00005F4204602E000BF024800BF00BF70BDFC
:101000000010024000127A00202500083025000858
:1010100000093D00F8B504460CB90120F8BD207860
:1010200000F00100002878D0F848406800F00C007B
:1010300004280CD0F548406800F00C00082811D1B5
:10104000F248406800F48030B0F5803F0AD1EF48A4
:10105000006800F4003000285FD0606800285CD190
:101060000120DBE700BF6068B0F5803F06D1E748AC
:10107000006840F48030E549086028E0606858B9AD
:10108000E248006820F48030E049086008460068C3
:1010900020F4802008601AE06068B0F5A02F0BD122
:1010A000DA48006840F48020D849086008460068A3
:1010B00040F4803008600AE0D448006820F48030B2
:1010C000D24908600846006820F48020086000BF0C
:1010D000606888B1FFF7A2FD054606E0FFF79EFDB8
:1010E000401B642801D9032098E7C848006800F431
:1010F00000300028F2D010E0FFF790FD054606E032
:10110000FFF78CFD401B642801D9032086E7BF4808
:10111000006800F400300028F2D1207800F00200CE
:10112000022857D1B948406800F00C0050B1B748C8
:10113000406800F00C00082818D1B448406800F45A
:10114000803098B9B148006800F0020020B12069F1
:10115000012801D0012061E7AC48006820F0F800C8
:10116000616940EAC100A949086033E02069E8B13B
:101170000120A7490860FFF751FD054606E0FFF78B
:101180004DFD401B022801D9032047E79F48006816
:1011900000F002000028F2D09C48006820F0F8001F
:1011A000616940EAC1009949086013E0002098494C
:1011B0000860FFF733FD054606E0FFF72FFD401BF3
:1011C000022801D9032029E79048006800F00200B6
:1011D0000028F2D1207800F0080008282DD1A0695D
:1011E000B8B101208B490860FFF718FD054606E0FD
:1011F000FFF714FD401B022801D903200EE78348A6
:10120000406A00F002000028F2D0012000F032FE17
:1012100013E000207F490860FFF700FD054606E067
:10122000FFF7FCFC401B022801D90320F6E67748B3
:10123000406A00F002000028F2D1207800F004009B
:10124000042873D100277148C06900F0805070B93C
:1012500000BF6E48C06940F080506C49C8610846C4
:10126000C06900F08050009000BF00BF01276A48AD
:10127000006800F48070B0B96748006840F480707E
:1012800065490860FFF7CAFC054606E0FFF7C6FCA3
:10129000401B642801D90320C0E65F48006800F4C1
:1012A00080700028F2D000BFE068012806D15748BE
:1012B000006A40F001005549086227E0E06858B92B
:1012C0005248006A20F00100504908620846006A4E
:1012D00020F00400086219E0E06805280BD14B48B3
:1012E000006A40F00400494908620846006A40F07C
:1012F000010008620AE04548006A20F00100434905
:1013000008620846006A20F00400086200BFE06836
:10131000A0B1FFF783FC054609E0FFF77FFC401B07
:1013200041F28831884202D9032077E622E037482B
:10133000006A00F002000028EFD012E0FFF76EFC18
:10134000054608E0FFF76AFC401B41F288318842FD
:1013500001D9032062E62D48006A00F0020000284F
:10136000F0D1012F05D12948C06920F080502749CC
:10137000C86100BFE069C8B32448406800F00C00B1
:10138000082860D0E069022848D10020204908667A
:10139000FFF744FC054606E0FFF740FC401B02282F
:1013A00001D903203AE61948006800F000700028CF
:1013B000F2D1206AB0F5803F07D11448406820F48C
:1013C0000030A168084311494860D4E90801084386
:1013D0000E49496821F4741108430C494860012002
:1013E0000B490866FFF71AFC054607E03DE0FFF7EA
:1013F00015FC401B022801D903200FE603480068B2
:1014000000F000700028F2D02FE000000010024031
:101410000000424280044242007000400020144913
:101420000866FFF7FBFB054606E0FFF7F7FB401BEE
:10143000022801D90320F1E50E48006800F0007091
:101440000028F2D111E0E069012800D1E6E5094861
:10145000466806F48031206A814204D106F4701196
:10146000606A814201D00120D8E50020D6E5000065
:10147000000042420010024070B504462546681E36
:10148000B0F1807F01D301200FE0681E4FF0E02112
:1014900048610F214FF0FF3001F006F800204FF0B7
:1014A000E021886107200861002070BD7047704707
:1014B0002DE9F84F0446206805682068C668206852
:1014C00047694FF00009CA4605F00F09B9F1000F4E
:1014D0000AD105F0200038B106F0200020B12046E6
:1014E00000F03FFEBDE8F88FB9F1000F7BD007F0A8
:1014F000010018B906F49070002874D005F00100BE
:1015000030B106F4807018B1606C40F00100606486
:1015100005F0040030B107F0010018B1606C40F034
:101520000200606405F0020030B107F0010018B15C
:10153000606C40F00400606405F0080048B106F0FB
:10154000200010B907F0010018B1606C40F00800ED
:101550006064606C002845D005F0200028B106F0DA
:10156000200010B1204600F0FCFD20684069C0F367
:10157000801A606C00F0080010B9BAF1000F2CD08E
:10158000204600F095FD2068406900F0400000B35F
:1015900000BF00BF2168143151E8001F21F0400056
:1015A0002168143141E80002002AF3D100BFE06B4A
:1015B00050B17748E16B4863E06BFEF75BFE88B1A2
:1015C000E06B416B88470DE02046FFF770FF09E0B4
:1015D00009E02046FFF76BFF04E02046FFF767FFB6
:1015E000002060647EE7206B012877D105F01000B1
:1015F000002873D006F010000028FAD000BF0020A9
:10160000009020680068009020684068009000BF4B
:1016100000BF2068406900F0400000285FD0E06B08
:10162000006840681FFA80F8B8F1000F55D0A08D0F
:10163000404552DDA4F82E80E06B8069202843D01D
:1016400000BF00BF21680C3151E8001F21F48070F9
:1016500021680C3141E80002002AF3D100BF00BF2D
:1016600000BF2168143151E8001F21F001002168FA
:10167000143141E80002002AF3D100BF00BF00BFCF
:101680002168143151E8001F21F040002168143115
:1016900041E80002002AF3D100BF202084F8420074
:1016A0000020206300BF00BF21680C3151E8001FFB
:1016B00021F0100021680C3141E80002002AF3D12A
:1016C00000BFE06BFEF7AAFD02206063A08DE28DF3
:1016D000801A81B22046FFF7E9FE03E742E0A08DC1
:1016E000E18D401A1FFA80F8E08DD0B3B8F1000FF9
:1016F00037D000BF00BF21680C3151E8001F21F432
:10170000907021680C3141E80002002AF3D100BF3B
:1017100000BF00BF2168143151E8001F21F0010013
:101720002168143141E80002002AF3D100BF2020D3
:1017300084F842000020206300BF00BF21680C3104
:1017400051E8001F21F0100021680C3141E800022F
:10175000002AF3D100BF0220606341462046FFF714
:10176000A5FEBFE605F0800030B106F0800018B19C
:10177000204600F057FEB5E605F0400030B106F017
:10178000400018B1204600F0C9FCABE600BFA9E656
:101790000F1F000810B504460CB9012010BDA06948
:1017A00000B100E000BF94F8410028B9002084F89F
:1017B0004000204600F02AF8242084F841002068E8
:1017C000C06820F400502168C860204600F048FD41
:1017D0002068006920F49040216808612068406911
:1017E00020F02A00216848612068C06840F4005059
:1017F0002168C86000206064202084F8410084F8DB
:1018000042000020606300BFC8E7000010B586B04A
:1018100004460020029003900490059061492068DE
:10182000884249D100BF6048806940F480405E49E9
:1018300088610846806900F48040019000BF00BFC5
:1018400000BF0846806940F004008861084680694E
:1018500000F00400019000BF00BF48150290022074
:1018600003900320059002A95048FFF737F84FF482
:101870008060029000200390049002A94B48FFF77B
:101880002DF84B484B49086000204860002149482A
:1018900081608021C16000210161416181614FF45B
:1018A0000051C161FEF786FF08B1FEF7B4FC00BF2E
:1018B0004048E063446272E03F49206888426ED14C
:1018C00000BF3948C06940F480203749C8610846E4
:1018D000C06900F48020019000BF00BF00BF08462F
:1018E000806940F0080088610846806900F00800BF
:1018F000019000BF00BF0815029002200390032052
:10190000059002A92D48FEF7E9FF4FF40060029010
:1019100000200390049002A92848FEF7DFFF244826
:101920002838274908600020486000212448816049
:101930008021C1600021016141612021816100217C
:10194000C161FEF737FF08B1FEF765FC00BF1C4818
:10195000E063446200BF16483C381A490860102012
:1019600048600021174881608021C1600021016129
:10197000416181614FF44051C161FEF71BFF08B125
:10198000FEF749FC00BF0F48A063446200BF00227D
:1019900011462720FFF7C8F92720FFF7B5F906B051
:1019A00010BD000000380140001002400008014056
:1019B000580002401401002000480040000C014083
:1019C000580100209C01002070B504460D461646C3
:1019D00094F8420020280BD105B10EB9012070BD4A
:1019E0000020206332462946204600F0B7FCF6E787
:1019F0000220F4E770B50546A149286888421ED147
:101A0000A0480078002847D19F4800789F4909786E
:101A1000884215D19C48007E9D49097888420FD1A3
:101A200002209849087001209A49087001229A48BA
:101A300000F03EF9192299499948FFF7C5FF1EE1C8
:101A4000012426E09048005D9049097888421FD122
:101A500004F11806322E1ADA8B48805D8C49097819
:101A6000884214D1012087490870C4F119008D49BA
:101A700008700220874908700122874800F018F991
:101A80008848027885498648FFF79EFF03E000BF3B
:101A9000641C322CD6DBF2E07A480078012825D18C
:101AA00080480078401E7849085C78B90220754962
:101AB00008700320774908700122774800F0F8F891
:101AC000192276497648FFF77FFFD8E000206D495C
:101AD000087004206F49087001226F4800F0E8F890
:101AE000322269496E48FFF76FFFC8E00520694957
:101AF00008706A4840786949897840EA0120C0F353
:101B00000A006949088065488078C0106349C9782F
:101B100040EA4110C0F30A00634948805F48C0783A
:101B200080115E49097940EA81005C49497940EABF
:101B30008120C0F30A005C498880584840794010F1
:101B40005649897940EAC110C0F30A005649C88055
:101B50005248C07940F2FF7101EA00104F4989797B
:101B600040EA2110504908814C48C079C0114B49C6
:101B7000097A40EA41004949497A40F2FF7202EA93
:101B800041210843484948814448807A114601EA86
:101B900080104249497A40EAA100434988813F4880
:101BA000C07A114601EAC0003C49897A40EA6110D6
:101BB0003D49C8813948007B3849497B02EA012107
:101BC0000843394908823548807B114601EA4010B4
:101BD0003249497B40EAE100334948822F48807B03
:101BE00080112E49C97B40EA81002C49097C02EA18
:101BF000812108432C4988822848407C114601EA0B
:101C0000C0102649097C40EA61002749C882234860
:101C1000807C114601EA00102049497C40EA2110ED
:101C2000214908831D48807CC0111C49C97C40EAB9
:101C300041001A49097D02EA412108431A494883B3
:101C40001648407D114601EA80101449097D40EA9A
:101C5000A100154988831148807D114601EAC00022
:101C60000E49497D40EA61100F49C88302220A48A3
:101C700000F01EF8192209490948FFF7A5FE70BDBA
:101C80000038014001000020310000200300002046
:101C90000400002000000020CC00002018000020DC
:101CA0008400002002000020640000207047000033
:101CB000F7B50446154694F84100202836D101981E
:101CC00000B10DB90120FEBD01982062A584E58414
:101CD00000206064212084F841001548A16B8862CF
:101CE0001448A16BC8621448A16B08630020A16B63
:101CF000486301AE23681A1D31682B46A06BFEF7BE
:101D00009FFD6FF040002168086000BF00BF2168A0
:101D1000143151E8001F41F080002168143141E87E
:101D20000002002AF3D100BF0020CCE70220CAE75E
:101D30004B200008A3200008231F000870477047AD
:101D400000BFFEE708B500BF1248406940F001003F
:101D5000104948610846406900F00100009000BF4A
:101D600000BF002211460C20FEF7DEFF0C20FEF71C
:101D7000CBFF002211460D20FEF7D6FF0D20FEF707
:101D8000C3FF002211460F20FEF7CEFF0F20FEF703
:101D9000BBFF08BD0010024008B500BF13488069B2
:101DA00040F02000114988610846806900F0200059
:101DB000009000BF00BF00BF0846806940F00800E7
:101DC00088610846806900F00800009000BF00BFED
:101DD00000BF0846806940F00400886108468069B9
:101DE00000F00400009000BF00BF08BD00100240DA
:101DF00010B50C480C4908600C4848604FF48051FD
:101E0000094881604900C160C91001610C2141612C
:101E100000218161C161FFF7BDFC08B1FEF7FBF94C
:101E200010BD00000038014084000020A0860100A1
:101E300010B50B480B4908604FF461404860002121
:101E400008488160C16001610C214161002181610C
:101E5000C161FFF79FFC08B1FEF7DDF910BD00007E
:101E600000480040CC00002000BFFEE700BFFEE7B6
:101E70007047000008B508490968C9084FF47A722C
:101E8000B1FBF2F14143009100BF00BF00994A1E2F
:101E900000920029F9D108BD14000020704710B548
:101EA000FEF7C2FE10BD00B58FB0282105A8FEF7D1
:101EB00064F914216846FEF760F9012005900004DA
:101EC0000690002007900120099002200C90C10389
:101ED0000D914FF4E0110E9105A8FFF79BF808B1A2
:101EE000FEF799F90F200090022001900020029047
:101EF0004FF4806003900020049002216846FEF7B2
:101F000065FF08B1FEF787F90FB000BD704770B5E7
:101F100005466C6A0020E085E0842046FFF7C7FA9A
:101F200070BD70B506460025746A20684069C0F32C
:101F3000C01594F84100212805D125B10020E08486
:101F4000204600F0FBF820684069C0F3801594F843
:101F50004200222805D125B10020E085204600F06E
:101F6000A7F8606C40F0100060642046FFF79FFA0D
:101F700070BD70B505466C6A2868006800F02000E6
:101F8000002842D1E08500BF00BF21680C3151E834
:101F9000001F21F4807021680C3141E80002002A02
:101FA000F3D100BF00BF00BF2168143151E8001F0A
:101FB00021F001002168143141E80002002AF3D128
:101FC00000BF00BF00BF2168143151E8001F21F09D
:101FD00040002168143141E80002002AF3D100BF1B
:101FE000202084F84200206B01280ED100BF00BFE2
:101FF00021680C3151E8001F21F0100021680C31DC
:1020000041E80002002AF3D100BF00206063206B8A
:10201000012804D1A18D2046FFF748FA02E02046AE
:10202000FFF7E8FC70BD70B505466C6A012060637F
:10203000206B012805D1A08D41082046FFF736FA14
:1020400002E02046FFF732FE70BD70B505466C6AAF
:102050002868006800F02000F8B90020E08400BF84
:1020600000BF2168143151E8001F21F08000216871
:10207000143141E80002002AF3D100BF00BF00BFC5
:1020800021680C3151E8001F41F0400021680C31FB
:1020900041E80002002AF3D102E02046FFF74EFE9D
:1020A00070BD70B50446656A2846FFF748FE70BDEE
:1020B00000BF00BF02680C3252E8002F22F490717A
:1020C00002680C3242E80013002BF3D100BF00BFBE
:1020D00000BF0268143252E8002F22F001010268AA
:1020E000143242E80013002BF3D100BF016B012929
:1020F0000ED100BF00BF02680C3252E8002F22F060
:10210000100102680C3242E80013002BF3D100BF2B
:10211000202180F8421000210163704710B5044669
:102120002068C06820F040002168C860202084F842
:1021300041002046FFF702FE002010BD00BF00BF97
:1021400002680C3252E8002F22F0C00102680C3203
:1021500042E80013002BF3D100BF202180F841108A
:102160007047F8B5044694F84200222875D1A0685B
:10217000B0F5805F0CD1206950B90025A66A2068AF
:102180004068C0F308003080A06A801CA06215E09F
:10219000A56A0026A068B0F5805F03D0A06828B9C2
:1021A000206918B920684068287004E020684068F9
:1021B00000F07F002870A06A401CA062E08D401EE5
:1021C00080B2E085002846D12068C06820F0200059
:1021D0002168C8602068C06820F480702168C860E9
:1021E0002068406920F0010021684861202084F8BF
:1021F000420000206063206B012826D1002020636C
:1022000000BF00BF21680C3151E8001F21F0100011
:1022100021680C3141E80002002AF3D100BF206898
:10222000006800F0100010280AD100BF00200090C4
:1022300020680068009020684068009000BF00BFE0
:10224000A18D2046FFF732F902E02046FFF7D2FBCE
:102250000020F8BD01E00020FBE70220F9E70000C4
:1022600070B504462168096921F44051E2681143C0
:10227000226811612269A1681143626941EA02057D
:102280002168C96841F20C62914329432268D160F8
:102290002168496921F44071A269114322685161A2
:1022A0002D4A2168914202D1FEF76CFE01E0FEF753
:1022B00059FE00EBC00101EB001162689200B1FB16
:1022C000F2F100EBC00202EB001263689B00B2FB6C
:1022D000F3F26423B2FBF3F202EBC20303EB02124C
:1022E000A1EB8201322202EB01116422B1FBF2F177
:1022F00001F0F00100EBC00202EB001263689B00EA
:10230000B2FBF3F26423B2FBF3F201EB021200EB37
:10231000C00101EB001163689B00B1FBF3F100EB1E
:10232000C00303EB00136668B600B3FBF6F3642644
:10233000B3FBF6F303EBC30606EB0313A1EB830138
:10234000322303EB01116423B1FBF3F101F00F0120
:1023500011442268916070BD0038014077B581B0AA
:10236000044615460298A062A585002060642220DC
:1023700084F842002848E16B88622848E16BC86213
:102380002748E16B08630020E16B486302AE3268C6
:102390002368191D2B46E06BFEF752FA00BF0020A0
:1023A000009020680068009020684068009000BF9E
:1023B00000BF206970B100BF00BF21680C3151E837
:1023C000001F41F4807021680C3141E80002002AAE
:1023D000F3D100BF00BF00BF2168143151E8001FD6
:1023E00041F001002168143141E80002002AF3D1D4
:1023F00000BF00BF00BF2168143151E8001F41F049
:1024000040002168143141E80002002AF3D100BFE6
:10241000002004B070BD0000731F000827200008D2
:10242000231F0008014691F84100212828D188681F
:10243000B0F5805F0BD1086948B90A6A1088C0F30B
:1024400008000B685860086A801C086205E00B6A87
:10245000581C086218780B685860C88C401E80B2FF
:10246000C88458B90868C06820F080000B68D8603C
:102470000868C06840F040000B68D86000207047D2
:102480000220FCE710B50248FFF712F810BD00006B
:10249000CC00002000BFFEE702480068C0F3022025
:1024A000704700000CED00E010B5002804DB0A07BF
:1024B000130E054A135406E00A07140E034A00F0EF
:1024C0000F031B1FD45410BD00E400E018ED00E022
:1024D00002E008C8121F08C1002AFAD170477047ED
:1024E000002001E001C1121F002AFBD1704700004B
:1024F000FEF7A6FBFFF7D7FCFFF74EFCFFF722FC29
:10250000FFF796FCFFF774FC322203490348FFF7FC
:102510005BFA00BFFEE700003100002084000020CD
:1025200002030405060708090A0B0C0D0E0F101014
:102530000102000000000000000001020304060781
:102540000809000000000102030400006C250008D7
:102550000000002018000000D02400088425000896
:1025600018000020C8050000E02400080000000F4B
:10257000000000000000000010000000010000004A
:0425800000127A00CB
:0400000508000131BD
:00000001FF
